{
  "contractName": "Hospital",
  "abi": [
    {
      "inputs": [],
      "payable": false,
      "stateMutability": "nonpayable",
      "type": "constructor"
    },
    {
      "constant": true,
      "inputs": [],
      "name": "getPI",
      "outputs": [
        {
          "internalType": "string",
          "name": "",
          "type": "string"
        },
        {
          "internalType": "uint256",
          "name": "",
          "type": "uint256"
        },
        {
          "internalType": "string",
          "name": "",
          "type": "string"
        }
      ],
      "payable": false,
      "stateMutability": "view",
      "type": "function"
    },
    {
      "constant": false,
      "inputs": [
        {
          "internalType": "address",
          "name": "addr",
          "type": "address"
        },
        {
          "internalType": "string",
          "name": "name",
          "type": "string"
        }
      ],
      "name": "authorizeDoctor",
      "outputs": [],
      "payable": false,
      "stateMutability": "nonpayable",
      "type": "function"
    },
    {
      "constant": false,
      "inputs": [
        {
          "internalType": "string",
          "name": "name",
          "type": "string"
        },
        {
          "internalType": "uint256",
          "name": "age",
          "type": "uint256"
        },
        {
          "internalType": "string",
          "name": "gender",
          "type": "string"
        }
      ],
      "name": "createAccount",
      "outputs": [],
      "payable": false,
      "stateMutability": "nonpayable",
      "type": "function"
    },
    {
      "constant": false,
      "inputs": [
        {
          "internalType": "address",
          "name": "doctor",
          "type": "address"
        }
      ],
      "name": "register",
      "outputs": [],
      "payable": false,
      "stateMutability": "nonpayable",
      "type": "function"
    },
    {
      "constant": false,
      "inputs": [
        {
          "internalType": "uint256",
          "name": "reportIdx",
          "type": "uint256"
        }
      ],
      "name": "releaseRep",
      "outputs": [],
      "payable": false,
      "stateMutability": "nonpayable",
      "type": "function"
    },
    {
      "constant": false,
      "inputs": [
        {
          "internalType": "uint256",
          "name": "reportIdx",
          "type": "uint256"
        },
        {
          "internalType": "address",
          "name": "addr",
          "type": "address"
        }
      ],
      "name": "showRepTo",
      "outputs": [],
      "payable": false,
      "stateMutability": "nonpayable",
      "type": "function"
    },
    {
      "constant": false,
      "inputs": [
        {
          "internalType": "address",
          "name": "patAddr",
          "type": "address"
        },
        {
          "internalType": "uint256",
          "name": "repIdx",
          "type": "uint256"
        },
        {
          "internalType": "string",
          "name": "date",
          "type": "string"
        },
        {
          "internalType": "string",
          "name": "symptoms",
          "type": "string"
        },
        {
          "internalType": "string",
          "name": "diagnosis",
          "type": "string"
        },
        {
          "internalType": "string",
          "name": "prescription",
          "type": "string"
        }
      ],
      "name": "fillRep",
      "outputs": [],
      "payable": false,
      "stateMutability": "nonpayable",
      "type": "function"
    },
    {
      "constant": true,
      "inputs": [],
      "name": "getRepCount",
      "outputs": [
        {
          "internalType": "int256",
          "name": "",
          "type": "int256"
        }
      ],
      "payable": false,
      "stateMutability": "view",
      "type": "function"
    },
    {
      "constant": true,
      "inputs": [
        {
          "internalType": "uint256",
          "name": "idx",
          "type": "uint256"
        }
      ],
      "name": "getRep",
      "outputs": [
        {
          "internalType": "string",
          "name": "",
          "type": "string"
        },
        {
          "internalType": "string",
          "name": "",
          "type": "string"
        },
        {
          "internalType": "string",
          "name": "",
          "type": "string"
        },
        {
          "internalType": "string",
          "name": "",
          "type": "string"
        },
        {
          "internalType": "bool",
          "name": "",
          "type": "bool"
        },
        {
          "internalType": "address[]",
          "name": "",
          "type": "address[]"
        }
      ],
      "payable": false,
      "stateMutability": "view",
      "type": "function"
    },
    {
      "constant": true,
      "inputs": [
        {
          "internalType": "address",
          "name": "patAddr",
          "type": "address"
        },
        {
          "internalType": "uint256",
          "name": "repIdx",
          "type": "uint256"
        }
      ],
      "name": "viewRep",
      "outputs": [
        {
          "internalType": "string",
          "name": "",
          "type": "string"
        },
        {
          "internalType": "string",
          "name": "",
          "type": "string"
        },
        {
          "internalType": "string",
          "name": "",
          "type": "string"
        },
        {
          "internalType": "string",
          "name": "",
          "type": "string"
        }
      ],
      "payable": false,
      "stateMutability": "view",
      "type": "function"
    },
    {
      "constant": true,
      "inputs": [],
      "name": "getThisType",
      "outputs": [
        {
          "internalType": "string",
          "name": "",
          "type": "string"
        }
      ],
      "payable": false,
      "stateMutability": "view",
      "type": "function"
    },
    {
      "constant": true,
      "inputs": [
        {
          "internalType": "address",
          "name": "addr",
          "type": "address"
        }
      ],
      "name": "getType",
      "outputs": [
        {
          "internalType": "string",
          "name": "",
          "type": "string"
        }
      ],
      "payable": false,
      "stateMutability": "view",
      "type": "function"
    },
    {
      "constant": true,
      "inputs": [
        {
          "internalType": "string",
          "name": "a",
          "type": "string"
        },
        {
          "internalType": "string",
          "name": "b",
          "type": "string"
        }
      ],
      "name": "compareStrings",
      "outputs": [
        {
          "internalType": "bool",
          "name": "",
          "type": "bool"
        }
      ],
      "payable": false,
      "stateMutability": "pure",
      "type": "function"
    },
    {
      "constant": true,
      "inputs": [],
      "name": "getAddress",
      "outputs": [
        {
          "internalType": "address",
          "name": "",
          "type": "address"
        }
      ],
      "payable": false,
      "stateMutability": "view",
      "type": "function"
    }
  ],
  "bytecode": "0x60806040523480156200001157600080fd5b5060003390806001815401808255809150509060018203906000526020600020016000909192909190916101000a81548173ffffffffffffffffffffffffffffffffffffffff021916908373ffffffffffffffffffffffffffffffffffffffff16021790555050620000826200024f565b80600260003373ffffffffffffffffffffffffffffffffffffffff1673ffffffffffffffffffffffffffffffffffffffff1681526020019081526020016000206000820151816000019080519060200190620000e092919062000277565b506020820151816001015560408201518160020190805190602001906200010992919062000277565b5060608201518160030190805190602001906200012892919062000277565b509050506040518060400160405280600d81526020017f61646d696e6973747261746f7200000000000000000000000000000000000000815250600260003373ffffffffffffffffffffffffffffffffffffffff1673ffffffffffffffffffffffffffffffffffffffff1681526020019081526020016000206000019080519060200190620001b9929190620002fe565b506040518060400160405280600581526020017f61646d696e000000000000000000000000000000000000000000000000000000815250600260003373ffffffffffffffffffffffffffffffffffffffff1673ffffffffffffffffffffffffffffffffffffffff168152602001908152602001600020600301908051906020019062000247929190620002fe565b5050620003ad565b6040518060800160405280606081526020016000815260200160608152602001606081525090565b828054600181600116156101000203166002900490600052602060002090601f016020900481019282601f10620002ba57805160ff1916838001178555620002eb565b82800160010185558215620002eb579182015b82811115620002ea578251825591602001919060010190620002cd565b5b509050620002fa919062000385565b5090565b828054600181600116156101000203166002900490600052602060002090601f016020900481019282601f106200034157805160ff191683800117855562000372565b8280016001018555821562000372579182015b828111156200037157825182559160200191906001019062000354565b5b50905062000381919062000385565b5090565b620003aa91905b80821115620003a65760008160009055506001016200038c565b5090565b90565b613f8580620003bd6000396000f3fe608060405234801561001057600080fd5b50600436106100ea5760003560e01c8063a737927d1161008c578063cf5793bc11610066578063cf5793bc14610b15578063d8f531cb14610b63578063e4d49f9014610be6578063f429f19b14610e24576100ea565b8063a737927d1461060b578063aadaeef7146108b5578063bed34bba146109ab576100ea565b80634192806f116100c85780634192806f146102325780634420e4861461038e57806358efc664146103d2578063a3ec6b1e14610400576100ea565b80632150eb5f146100ef5780632d66f2fe1461010d57806338cc4831146101e8575b600080fd5b6100f7610ee1565b6040518082815260200191505060405180910390f35b6101e66004803603604081101561012357600080fd5b81019080803573ffffffffffffffffffffffffffffffffffffffff1690602001909291908035906020019064010000000081111561016057600080fd5b82018360208201111561017257600080fd5b8035906020019184600183028401116401000000008311171561019457600080fd5b91908080601f016020809104026020016040519081016040528093929190818152602001838380828437600081840152601f19601f820116905080830192505050505050509192919290505050611110565b005b6101f061130f565b604051808273ffffffffffffffffffffffffffffffffffffffff1673ffffffffffffffffffffffffffffffffffffffff16815260200191505060405180910390f35b61038c6004803603606081101561024857600080fd5b810190808035906020019064010000000081111561026557600080fd5b82018360208201111561027757600080fd5b8035906020019184600183028401116401000000008311171561029957600080fd5b91908080601f016020809104026020016040519081016040528093929190818152602001838380828437600081840152601f19601f820116905080830192505050505050509192919290803590602001909291908035906020019064010000000081111561030657600080fd5b82018360208201111561031857600080fd5b8035906020019184600183028401116401000000008311171561033a57600080fd5b91908080601f016020809104026020016040519081016040528093929190818152602001838380828437600081840152601f19601f820116905080830192505050505050509192919290505050611317565b005b6103d0600480360360208110156103a457600080fd5b81019080803573ffffffffffffffffffffffffffffffffffffffff16906020019092919050505061151c565b005b6103fe600480360360208110156103e857600080fd5b8101908080359060200190929190505050611b2c565b005b61044c6004803603604081101561041657600080fd5b81019080803573ffffffffffffffffffffffffffffffffffffffff16906020019092919080359060200190929190505050611c0b565b6040518080602001806020018060200180602001858103855289818151815260200191508051906020019080838360005b8381101561049857808201518184015260208101905061047d565b50505050905090810190601f1680156104c55780820380516001836020036101000a031916815260200191505b50858103845288818151815260200191508051906020019080838360005b838110156104fe5780820151818401526020810190506104e3565b50505050905090810190601f16801561052b5780820380516001836020036101000a031916815260200191505b50858103835287818151815260200191508051906020019080838360005b83811015610564578082015181840152602081019050610549565b50505050905090810190601f1680156105915780820380516001836020036101000a031916815260200191505b50858103825286818151815260200191508051906020019080838360005b838110156105ca5780820151818401526020810190506105af565b50505050905090810190601f1680156105f75780820380516001836020036101000a031916815260200191505b509850505050505050505060405180910390f35b6108b3600480360360c081101561062157600080fd5b81019080803573ffffffffffffffffffffffffffffffffffffffff169060200190929190803590602001909291908035906020019064010000000081111561066857600080fd5b82018360208201111561067a57600080fd5b8035906020019184600183028401116401000000008311171561069c57600080fd5b91908080601f016020809104026020016040519081016040528093929190818152602001838380828437600081840152601f19601f820116905080830192505050505050509192919290803590602001906401000000008111156106ff57600080fd5b82018360208201111561071157600080fd5b8035906020019184600183028401116401000000008311171561073357600080fd5b91908080601f016020809104026020016040519081016040528093929190818152602001838380828437600081840152601f19601f8201169050808301925050505050505091929192908035906020019064010000000081111561079657600080fd5b8201836020820111156107a857600080fd5b803590602001918460018302840111640100000000831117156107ca57600080fd5b91908080601f016020809104026020016040519081016040528093929190818152602001838380828437600081840152601f19601f8201169050808301925050505050505091929192908035906020019064010000000081111561082d57600080fd5b82018360208201111561083f57600080fd5b8035906020019184600183028401116401000000008311171561086157600080fd5b91908080601f016020809104026020016040519081016040528093929190818152602001838380828437600081840152601f19601f8201169050808301925050505050505091929192905050506127c9565b005b6108bd612ae2565b604051808060200184815260200180602001838103835286818151815260200191508051906020019080838360005b838110156109075780820151818401526020810190506108ec565b50505050905090810190601f1680156109345780820380516001836020036101000a031916815260200191505b50838103825284818151815260200191508051906020019080838360005b8381101561096d578082015181840152602081019050610952565b50505050905090810190601f16801561099a5780820380516001836020036101000a031916815260200191505b509550505050505060405180910390f35b610afb600480360360408110156109c157600080fd5b81019080803590602001906401000000008111156109de57600080fd5b8201836020820111156109f057600080fd5b80359060200191846001830284011164010000000083111715610a1257600080fd5b91908080601f016020809104026020016040519081016040528093929190818152602001838380828437600081840152601f19601f82011690508083019250505050505050919291929080359060200190640100000000811115610a7557600080fd5b820183602082011115610a8757600080fd5b80359060200191846001830284011164010000000083111715610aa957600080fd5b91908080601f016020809104026020016040519081016040528093929190818152602001838380828437600081840152601f19601f820116905080830192505050505050509192919290505050612eef565b604051808215151515815260200191505060405180910390f35b610b6160048036036040811015610b2b57600080fd5b8101908080359060200190929190803573ffffffffffffffffffffffffffffffffffffffff169060200190929190505050612fde565b005b610b6b613215565b6040518080602001828103825283818151815260200191508051906020019080838360005b83811015610bab578082015181840152602081019050610b90565b50505050905090810190601f168015610bd85780820380516001836020036101000a031916815260200191505b509250505060405180910390f35b610c1260048036036020811015610bfc57600080fd5b81019080803590602001909291905050506133d7565b6040518080602001806020018060200180602001871515151581526020018060200186810386528c818151815260200191508051906020019080838360005b83811015610c6c578082015181840152602081019050610c51565b50505050905090810190601f168015610c995780820380516001836020036101000a031916815260200191505b5086810385528b818151815260200191508051906020019080838360005b83811015610cd2578082015181840152602081019050610cb7565b50505050905090810190601f168015610cff5780820380516001836020036101000a031916815260200191505b5086810384528a818151815260200191508051906020019080838360005b83811015610d38578082015181840152602081019050610d1d565b50505050905090810190601f168015610d655780820380516001836020036101000a031916815260200191505b50868103835289818151815260200191508051906020019080838360005b83811015610d9e578082015181840152602081019050610d83565b50505050905090810190601f168015610dcb5780820380516001836020036101000a031916815260200191505b50868103825287818151815260200191508051906020019060200280838360005b83811015610e07578082015181840152602081019050610dec565b505050509050019b50505050505050505050505060405180910390f35b610e6660048036036020811015610e3a57600080fd5b81019080803573ffffffffffffffffffffffffffffffffffffffff169060200190929190505050613a21565b6040518080602001828103825283818151815260200191508051906020019080838360005b83811015610ea6578082015181840152602081019050610e8b565b50505050905090810190601f168015610ed35780820380516001836020036101000a031916815260200191505b509250505060405180910390f35b6000610f2a610eef33613a21565b6040518060400160405280600381526020017f4e2f410000000000000000000000000000000000000000000000000000000000815250612eef565b15610f57577fffffffffffffffffffffffffffffffffffffffffffffffffffffffffffffffff905061110d565b610f9e610f6333613a21565b6040518060400160405280600681526020017f646f63746f720000000000000000000000000000000000000000000000000000815250612eef565b15610fcb577fffffffffffffffffffffffffffffffffffffffffffffffffffffffffffffffff905061110d565b60008090505b600180549050811015611074573373ffffffffffffffffffffffffffffffffffffffff166001828154811061100257fe5b9060005260206000200160009054906101000a900473ffffffffffffffffffffffffffffffffffffffff1673ffffffffffffffffffffffffffffffffffffffff16141561104e57611074565b600180805490500381141561106757600091505061110d565b8080600101915050610fd1565b506060600360003373ffffffffffffffffffffffffffffffffffffffff1673ffffffffffffffffffffffffffffffffffffffff16815260200190815260200160002080548060200260200160405190810160405280929190818152602001828054801561110057602002820191906000526020600020905b8154815260200190600101908083116110ec575b5050505050905080519150505b90565b61115761111c33613a21565b6040518060400160405280600581526020017f61646d696e000000000000000000000000000000000000000000000000000000815250612eef565b6111605761130b565b6111a761116c83613a21565b6040518060400160405280600381526020017f4e2f410000000000000000000000000000000000000000000000000000000000815250612eef565b6111b05761130b565b60008290806001815401808255809150509060018203906000526020600020016000909192909190916101000a81548173ffffffffffffffffffffffffffffffffffffffff021916908373ffffffffffffffffffffffffffffffffffffffff1602179055505061121e613be5565b8181600001819052506040518060400160405280600681526020017f646f63746f720000000000000000000000000000000000000000000000000000815250816060018190525080600260008573ffffffffffffffffffffffffffffffffffffffff1673ffffffffffffffffffffffffffffffffffffffff16815260200190815260200160002060008201518160000190805190602001906112c1929190613c0d565b506020820151816001015560408201518160020190805190602001906112e8929190613c0d565b506060820151816003019080519060200190611305929190613c0d565b50905050505b5050565b600033905090565b60008090505b6000805490508110156113a8573373ffffffffffffffffffffffffffffffffffffffff166000828154811061134e57fe5b9060005260206000200160009054906101000a900473ffffffffffffffffffffffffffffffffffffffff1673ffffffffffffffffffffffffffffffffffffffff16141561139b5750611517565b808060010191505061131d565b5060003390806001815401808255809150509060018203906000526020600020016000909192909190916101000a81548173ffffffffffffffffffffffffffffffffffffffff021916908373ffffffffffffffffffffffffffffffffffffffff16021790555050611417613be5565b838160000181905250828160200181815250508181604001819052506040518060400160405280600781526020017f70617469656e7400000000000000000000000000000000000000000000000000815250816060018190525080600260003373ffffffffffffffffffffffffffffffffffffffff1673ffffffffffffffffffffffffffffffffffffffff16815260200190815260200160002060008201518160000190805190602001906114cd929190613c0d565b506020820151816001015560408201518160020190805190602001906114f4929190613c0d565b506060820151816003019080519060200190611511929190613c0d565b50905050505b505050565b61156361152833613a21565b6040518060400160405280600381526020017f4e2f410000000000000000000000000000000000000000000000000000000000815250612eef565b1561156d57611b29565b6115b461157982613a21565b6040518060400160405280600681526020017f646f63746f720000000000000000000000000000000000000000000000000000815250612eef565b6115bd57611b29565b600033905060006001905060008090505b6001805490508110156116d6578273ffffffffffffffffffffffffffffffffffffffff16600182815481106115ff57fe5b9060005260206000200160009054906101000a900473ffffffffffffffffffffffffffffffffffffffff1673ffffffffffffffffffffffffffffffffffffffff16141561164b576116d6565b60018080549050038114156116c9576000915060018390806001815401808255809150509060018203906000526020600020016000909192909190916101000a81548173ffffffffffffffffffffffffffffffffffffffff021916908373ffffffffffffffffffffffffffffffffffffffff160217905550506116d6565b80806001019150506115ce565b5060006002836001600360008773ffffffffffffffffffffffffffffffffffffffff1673ffffffffffffffffffffffffffffffffffffffff1681526020019081526020016000208054905001604051602001808373ffffffffffffffffffffffffffffffffffffffff1673ffffffffffffffffffffffffffffffffffffffff168152602001828152602001925050506040516020818303038152906040526040518082805190602001908083835b602083106117a75780518252602082019150602081019050602083039250611784565b6001836020036101000a038019825116818451168082178552505050505050905001915050602060405180830381855afa1580156117e9573d6000803e3d6000fd5b5050506040513d60208110156117fe57600080fd5b81019080805190602001909291905050509050811561188557600360008473ffffffffffffffffffffffffffffffffffffffff1673ffffffffffffffffffffffffffffffffffffffff1681526020019081526020016000208190806001815401808255809150509060018203906000526020600020016000909192909190915055506118e3565b604051806020016040528082815250600360008573ffffffffffffffffffffffffffffffffffffffff1673ffffffffffffffffffffffffffffffffffffffff1681526020019081526020016000209060016118e1929190613c8d565b505b6118eb613cda565b806004600084815260200190815260200160002060008201518160000160006101000a81548160ff021916908315150217905550602082015181600101908051906020019061193b929190613d2f565b5060408201518160020160006101000a81548173ffffffffffffffffffffffffffffffffffffffff021916908373ffffffffffffffffffffffffffffffffffffffff160217905550606082015181600301908051906020019061199f929190613c0d565b5060808201518160040190805190602001906119bc929190613c0d565b5060a08201518160050190805190602001906119d9929190613c0d565b5060c08201518160060190805190602001906119f6929190613c0d565b50905050846004600084815260200190815260200160002060020160006101000a81548173ffffffffffffffffffffffffffffffffffffffff021916908373ffffffffffffffffffffffffffffffffffffffff1602179055506000604051908082528060200260200182016040528015611a7f5781602001602082028038833980820191505090505b50600460008481526020019081526020016000206001019080519060200190611aa9929190613db9565b50600460008381526020019081526020016000206001018590806001815401808255809150509060018203906000526020600020016000909192909190916101000a81548173ffffffffffffffffffffffffffffffffffffffff021916908373ffffffffffffffffffffffffffffffffffffffff16021790555050505050505b50565b600360003373ffffffffffffffffffffffffffffffffffffffff1673ffffffffffffffffffffffffffffffffffffffff16815260200190815260200160002080549050811115611b7b57611c08565b6000600360003373ffffffffffffffffffffffffffffffffffffffff1673ffffffffffffffffffffffffffffffffffffffff1681526020019081526020016000206001830381548110611bca57fe5b9060005260206000200154905060016004600083815260200190815260200160002060000160006101000a81548160ff021916908315150217905550505b50565b606080606080611c58611c1d33613a21565b6040518060400160405280600381526020017f4e2f410000000000000000000000000000000000000000000000000000000000815250612eef565b15611caa576040518060200160405280600081525060405180602001604052806000815250604051806020016040528060008152506040518060200160405280600081525093509350935093506127c0565b60008090505b600180549050811015611d97578673ffffffffffffffffffffffffffffffffffffffff1660018281548110611ce157fe5b9060005260206000200160009054906101000a900473ffffffffffffffffffffffffffffffffffffffff1673ffffffffffffffffffffffffffffffffffffffff161415611d2d57611d97565b6001808054905003811415611d8a57604051806020016040528060008152506040518060200160405280600081525060405180602001604052806000815250604051806020016040528060008152509450945094509450506127c0565b8080600101915050611cb0565b50600360008773ffffffffffffffffffffffffffffffffffffffff1673ffffffffffffffffffffffffffffffffffffffff16815260200190815260200160002080549050851115611e2f576040518060200160405280600081525060405180602001604052806000815250604051806020016040528060008152506040518060200160405280600081525093509350935093506127c0565b6000600360008873ffffffffffffffffffffffffffffffffffffffff1673ffffffffffffffffffffffffffffffffffffffff1681526020019081526020016000206001870381548110611e7e57fe5b906000526020600020015490506004600082815260200190815260200160002060000160009054906101000a900460ff161561229257611ebc613cda565b600460008381526020019081526020016000206040518060e00160405290816000820160009054906101000a900460ff1615151515815260200160018201805480602002602001604051908101604052809291908181526020018280548015611f7a57602002820191906000526020600020905b8160009054906101000a900473ffffffffffffffffffffffffffffffffffffffff1673ffffffffffffffffffffffffffffffffffffffff1681526020019060010190808311611f30575b505050505081526020016002820160009054906101000a900473ffffffffffffffffffffffffffffffffffffffff1673ffffffffffffffffffffffffffffffffffffffff1673ffffffffffffffffffffffffffffffffffffffff168152602001600382018054600181600116156101000203166002900480601f0160208091040260200160405190810160405280929190818152602001828054600181600116156101000203166002900480156120725780601f1061204757610100808354040283529160200191612072565b820191906000526020600020905b81548152906001019060200180831161205557829003601f168201915b50505050508152602001600482018054600181600116156101000203166002900480601f0160208091040260200160405190810160405280929190818152602001828054600181600116156101000203166002900480156121145780601f106120e957610100808354040283529160200191612114565b820191906000526020600020905b8154815290600101906020018083116120f757829003601f168201915b50505050508152602001600582018054600181600116156101000203166002900480601f0160208091040260200160405190810160405280929190818152602001828054600181600116156101000203166002900480156121b65780601f1061218b576101008083540402835291602001916121b6565b820191906000526020600020905b81548152906001019060200180831161219957829003601f168201915b50505050508152602001600682018054600181600116156101000203166002900480601f0160208091040260200160405190810160405280929190818152602001828054600181600116156101000203166002900480156122585780601f1061222d57610100808354040283529160200191612258565b820191906000526020600020905b81548152906001019060200180831161223b57829003601f168201915b5050505050815250509050806060015181608001518260a001518360c00151839350829250819150809050955095509550955050506127c0565b60606004600083815260200190815260200160002060010180548060200260200160405190810160405280929190818152602001828054801561232a57602002820191906000526020600020905b8160009054906101000a900473ffffffffffffffffffffffffffffffffffffffff1673ffffffffffffffffffffffffffffffffffffffff16815260200190600101908083116122e0575b5050505050905060008090505b8151811015612774573373ffffffffffffffffffffffffffffffffffffffff1682828151811061236357fe5b602002602001015173ffffffffffffffffffffffffffffffffffffffff1614156127675761238f613cda565b600460008581526020019081526020016000206040518060e00160405290816000820160009054906101000a900460ff161515151581526020016001820180548060200260200160405190810160405280929190818152602001828054801561244d57602002820191906000526020600020905b8160009054906101000a900473ffffffffffffffffffffffffffffffffffffffff1673ffffffffffffffffffffffffffffffffffffffff1681526020019060010190808311612403575b505050505081526020016002820160009054906101000a900473ffffffffffffffffffffffffffffffffffffffff1673ffffffffffffffffffffffffffffffffffffffff1673ffffffffffffffffffffffffffffffffffffffff168152602001600382018054600181600116156101000203166002900480601f0160208091040260200160405190810160405280929190818152602001828054600181600116156101000203166002900480156125455780601f1061251a57610100808354040283529160200191612545565b820191906000526020600020905b81548152906001019060200180831161252857829003601f168201915b50505050508152602001600482018054600181600116156101000203166002900480601f0160208091040260200160405190810160405280929190818152602001828054600181600116156101000203166002900480156125e75780601f106125bc576101008083540402835291602001916125e7565b820191906000526020600020905b8154815290600101906020018083116125ca57829003601f168201915b50505050508152602001600582018054600181600116156101000203166002900480601f0160208091040260200160405190810160405280929190818152602001828054600181600116156101000203166002900480156126895780601f1061265e57610100808354040283529160200191612689565b820191906000526020600020905b81548152906001019060200180831161266c57829003601f168201915b50505050508152602001600682018054600181600116156101000203166002900480601f01602080910402602001604051908101604052809291908181526020018280546001816001161561010002031660029004801561272b5780601f106127005761010080835404028352916020019161272b565b820191906000526020600020905b81548152906001019060200180831161270e57829003601f168201915b5050505050815250509050806060015181608001518260a001518360c001518393508292508191508090509750975097509750505050506127c0565b8080600101915050612337565b5060405180602001604052806000815250604051806020016040528060008152506040518060200160405280600081525060405180602001604052806000815250955095509550955050505b92959194509250565b6128106127d533613a21565b6040518060400160405280600381526020017f4e2f410000000000000000000000000000000000000000000000000000000000815250612eef565b1561281a57612ada565b61286161282633613a21565b6040518060400160405280600781526020017f70617469656e7400000000000000000000000000000000000000000000000000815250612eef565b1561286b57612ada565b60008090505b600180549050811015612910578673ffffffffffffffffffffffffffffffffffffffff16600182815481106128a257fe5b9060005260206000200160009054906101000a900473ffffffffffffffffffffffffffffffffffffffff1673ffffffffffffffffffffffffffffffffffffffff1614156128ee57612910565b60018080549050038114156129035750612ada565b8080600101915050612871565b50600360008773ffffffffffffffffffffffffffffffffffffffff1673ffffffffffffffffffffffffffffffffffffffff1681526020019081526020016000208054905085111561296057612ada565b6000600360008873ffffffffffffffffffffffffffffffffffffffff1673ffffffffffffffffffffffffffffffffffffffff16815260200190815260200160002060018703815481106129af57fe5b906000526020600020015490503373ffffffffffffffffffffffffffffffffffffffff166004600083815260200190815260200160002060020160009054906101000a900473ffffffffffffffffffffffffffffffffffffffff1673ffffffffffffffffffffffffffffffffffffffff161415612ad85784600460008381526020019081526020016000206003019080519060200190612a50929190613e43565b5083600460008381526020019081526020016000206004019080519060200190612a7b929190613e43565b5082600460008381526020019081526020016000206005019080519060200190612aa6929190613e43565b5081600460008381526020019081526020016000206006019080519060200190612ad1929190613e43565b5050612ada565b505b505050505050565b606060006060612b2f612af433613a21565b6040518060400160405280600781526020017f70617469656e7400000000000000000000000000000000000000000000000000815250612eef565b80612b7d5750612b7c612b4133613a21565b6040518060400160405280600681526020017f646f63746f720000000000000000000000000000000000000000000000000000815250612eef565b5b15612ebd57612b8a613be5565b600260003373ffffffffffffffffffffffffffffffffffffffff1673ffffffffffffffffffffffffffffffffffffffff168152602001908152602001600020604051806080016040529081600082018054600181600116156101000203166002900480601f016020809104026020016040519081016040528092919081815260200182805460018160011615610100020316600290048015612c6d5780601f10612c4257610100808354040283529160200191612c6d565b820191906000526020600020905b815481529060010190602001808311612c5057829003601f168201915b5050505050815260200160018201548152602001600282018054600181600116156101000203166002900480601f016020809104026020016040519081016040528092919081815260200182805460018160011615610100020316600290048015612d195780601f10612cee57610100808354040283529160200191612d19565b820191906000526020600020905b815481529060010190602001808311612cfc57829003601f168201915b50505050508152602001600382018054600181600116156101000203166002900480601f016020809104026020016040519081016040528092919081815260200182805460018160011615610100020316600290048015612dbb5780601f10612d9057610100808354040283529160200191612dbb565b820191906000526020600020905b815481529060010190602001808311612d9e57829003601f168201915b5050505050815250509050600260003373ffffffffffffffffffffffffffffffffffffffff1673ffffffffffffffffffffffffffffffffffffffff16815260200190815260200160002060000181602001518260400151828054600181600116156101000203166002900480601f016020809104026020016040519081016040528092919081815260200182805460018160011615610100020316600290048015612ea75780601f10612e7c57610100808354040283529160200191612ea7565b820191906000526020600020905b815481529060010190602001808311612e8a57829003601f168201915b5050505050925080905093509350935050612eea565b60006040518060200160405280600081525090809050604051806020016040528060008152509250925092505b909192565b6000816040516020018082805190602001908083835b60208310612f285780518252602082019150602081019050602083039250612f05565b6001836020036101000a03801982511681845116808217855250505050505090500191505060405160208183030381529060405280519060200120836040516020018082805190602001908083835b60208310612f9a5780518252602082019150602081019050602083039250612f77565b6001836020036101000a0380198251168184511680821785525050505050509050019150506040516020818303038152906040528051906020012014905092915050565b613025612fea82613a21565b6040518060400160405280600381526020017f4e2f410000000000000000000000000000000000000000000000000000000000815250612eef565b1561302f57613211565b600360003373ffffffffffffffffffffffffffffffffffffffff1673ffffffffffffffffffffffffffffffffffffffff1681526020019081526020016000208054905082111561307e57613211565b6000600360003373ffffffffffffffffffffffffffffffffffffffff1673ffffffffffffffffffffffffffffffffffffffff16815260200190815260200160002060018403815481106130cd57fe5b9060005260206000200154905060008090505b60046000838152602001908152602001600020600101805490508110156131945760046000838152602001908152602001600020600101818154811061312257fe5b9060005260206000200160009054906101000a900473ffffffffffffffffffffffffffffffffffffffff1673ffffffffffffffffffffffffffffffffffffffff168373ffffffffffffffffffffffffffffffffffffffff161415613187575050613211565b80806001019150506130e0565b50600460008281526020019081526020016000206001018290806001815401808255809150509060018203906000526020600020016000909192909190916101000a81548173ffffffffffffffffffffffffffffffffffffffff021916908373ffffffffffffffffffffffffffffffffffffffff16021790555050505b5050565b606060008090505b6000805490508110156132f5573373ffffffffffffffffffffffffffffffffffffffff166000828154811061324e57fe5b9060005260206000200160009054906101000a900473ffffffffffffffffffffffffffffffffffffffff1673ffffffffffffffffffffffffffffffffffffffff16141561329a576132f5565b6001600080549050038114156132e8576040518060400160405280600381526020017f4e2f4100000000000000000000000000000000000000000000000000000000008152509150506133d4565b808060010191505061321d565b50600260003373ffffffffffffffffffffffffffffffffffffffff1673ffffffffffffffffffffffffffffffffffffffff1681526020019081526020016000206003018054600181600116156101000203166002900480601f0160208091040260200160405190810160405280929190818152602001828054600181600116156101000203166002900480156133cc5780601f106133a1576101008083540402835291602001916133cc565b820191906000526020600020905b8154815290600101906020018083116133af57829003601f168201915b505050505090505b90565b606080606080600060608060006040519080825280602002602001820160405280156134125781602001602082028038833980820191505090505b50905061345c61342133613a21565b6040518060400160405280600381526020017f4e2f410000000000000000000000000000000000000000000000000000000000815250612eef565b156134be5760018160405180602001604052806000815250919060405180602001604052806000815250919060405180602001604052806000815250919060405180602001604052806000815250919096509650965096509650965050613a18565b6135056134ca33613a21565b6040518060400160405280600681526020017f646f63746f720000000000000000000000000000000000000000000000000000815250612eef565b156135675760018160405180602001604052806000815250919060405180602001604052806000815250919060405180602001604052806000815250919060405180602001604052806000815250919096509650965096509650965050613a18565b600360003373ffffffffffffffffffffffffffffffffffffffff1673ffffffffffffffffffffffffffffffffffffffff1681526020019081526020016000208054905088111561360e5760018160405180602001604052806000815250919060405180602001604052806000815250919060405180602001604052806000815250919060405180602001604052806000815250919096509650965096509650965050613a18565b6000600360003373ffffffffffffffffffffffffffffffffffffffff1673ffffffffffffffffffffffffffffffffffffffff16815260200190815260200160002060018a038154811061365d57fe5b906000526020600020015490506060600460008381526020019081526020016000206003018054600181600116156101000203166002900480601f0160208091040260200160405190810160405280929190818152602001828054600181600116156101000203166002900480156137165780601f106136eb57610100808354040283529160200191613716565b820191906000526020600020905b8154815290600101906020018083116136f957829003601f168201915b505050505090506060600460008481526020019081526020016000206004018054600181600116156101000203166002900480601f0160208091040260200160405190810160405280929190818152602001828054600181600116156101000203166002900480156137c95780601f1061379e576101008083540402835291602001916137c9565b820191906000526020600020905b8154815290600101906020018083116137ac57829003601f168201915b505050505090506060600460008581526020019081526020016000206005018054600181600116156101000203166002900480601f01602080910402602001604051908101604052809291908181526020018280546001816001161561010002031660029004801561387c5780601f106138515761010080835404028352916020019161387c565b820191906000526020600020905b81548152906001019060200180831161385f57829003601f168201915b505050505090506060600460008681526020019081526020016000206006018054600181600116156101000203166002900480601f01602080910402602001604051908101604052809291908181526020018280546001816001161561010002031660029004801561392f5780601f106139045761010080835404028352916020019161392f565b820191906000526020600020905b81548152906001019060200180831161391257829003601f168201915b5050505050905060006004600087815260200190815260200160002060000160009054906101000a900460ff1690506060600460008881526020019081526020016000206001018054806020026020016040519081016040528092919081815260200182805480156139f657602002820191906000526020600020905b8160009054906101000a900473ffffffffffffffffffffffffffffffffffffffff1673ffffffffffffffffffffffffffffffffffffffff16815260200190600101908083116139ac575b505050505090508585858585859d509d509d509d509d509d5050505050505050505b91939550919395565b606060008090505b600080549050811015613b01578273ffffffffffffffffffffffffffffffffffffffff1660008281548110613a5a57fe5b9060005260206000200160009054906101000a900473ffffffffffffffffffffffffffffffffffffffff1673ffffffffffffffffffffffffffffffffffffffff161415613aa657613b01565b600160008054905003811415613af4576040518060400160405280600381526020017f4e2f410000000000000000000000000000000000000000000000000000000000815250915050613be0565b8080600101915050613a29565b50600260008373ffffffffffffffffffffffffffffffffffffffff1673ffffffffffffffffffffffffffffffffffffffff1681526020019081526020016000206003018054600181600116156101000203166002900480601f016020809104026020016040519081016040528092919081815260200182805460018160011615610100020316600290048015613bd85780601f10613bad57610100808354040283529160200191613bd8565b820191906000526020600020905b815481529060010190602001808311613bbb57829003601f168201915b505050505090505b919050565b6040518060800160405280606081526020016000815260200160608152602001606081525090565b828054600181600116156101000203166002900490600052602060002090601f016020900481019282601f10613c4e57805160ff1916838001178555613c7c565b82800160010185558215613c7c579182015b82811115613c7b578251825591602001919060010190613c60565b5b509050613c899190613ec3565b5090565b828054828255906000526020600020908101928215613cc9579160200282015b82811115613cc8578251825591602001919060010190613cad565b5b509050613cd69190613ee8565b5090565b6040518060e0016040528060001515815260200160608152602001600073ffffffffffffffffffffffffffffffffffffffff168152602001606081526020016060815260200160608152602001606081525090565b828054828255906000526020600020908101928215613da8579160200282015b82811115613da75782518260006101000a81548173ffffffffffffffffffffffffffffffffffffffff021916908373ffffffffffffffffffffffffffffffffffffffff16021790555091602001919060010190613d4f565b5b509050613db59190613f0d565b5090565b828054828255906000526020600020908101928215613e32579160200282015b82811115613e315782518260006101000a81548173ffffffffffffffffffffffffffffffffffffffff021916908373ffffffffffffffffffffffffffffffffffffffff16021790555091602001919060010190613dd9565b5b509050613e3f9190613f0d565b5090565b828054600181600116156101000203166002900490600052602060002090601f016020900481019282601f10613e8457805160ff1916838001178555613eb2565b82800160010185558215613eb2579182015b82811115613eb1578251825591602001919060010190613e96565b5b509050613ebf9190613ec3565b5090565b613ee591905b80821115613ee1576000816000905550600101613ec9565b5090565b90565b613f0a91905b80821115613f06576000816000905550600101613eee565b5090565b90565b613f4d91905b80821115613f4957600081816101000a81549073ffffffffffffffffffffffffffffffffffffffff021916905550600101613f13565b5090565b9056fea265627a7a72315820d04c4a8b5d33e541315bf81de9f2a3b64cab9eace51c4a5606a998c9f8c7cde564736f6c63430005100032",
  "source": "pragma solidity ^0.5.0;\n\ncontract Hospital{\n    \n    struct PersonalInfo {\n        string name;\n        uint age;\n        string gender;\n        string PItype;\n    }\n\n    struct Report {\n        bool released;\n        address[] openTo;\n        address doctor;\n\n        string date;\n        string symptoms;\n        string diagnosis;\n        string prescription;\n    }\n\n    address[] infoedAddr; //addresses that created account\n    address[] regAddr; //addresses that registered for appointment\n    \n    \n    mapping (address => PersonalInfo) addr2PI;\n    mapping (address => bytes32[]) addr2pointer;\n    mapping (bytes32 => Report) pointer2Report;\n    \n    constructor() public {\n        infoedAddr.push(msg.sender);\n\n        PersonalInfo memory PI;\n        addr2PI[msg.sender] = PI;\n        addr2PI[msg.sender].name = string(\"administrator\");\n        addr2PI[msg.sender].PItype = string(\"admin\");\n\n    }\n\n\n    function getPI() public view returns(string memory, uint, string memory) {\n        if (compareStrings(getType(msg.sender), string(\"patient\")) ||\n            compareStrings(getType(msg.sender), string(\"doctor\"))) {\n            PersonalInfo memory PI = addr2PI[msg.sender];\n            return (addr2PI[msg.sender].name, PI.age, PI.gender);\n        } else {\n            return (\"\", 0, \"\");\n        }\n    }\n\n\n    //administrator authorize doctor address\n    function authorizeDoctor(address addr, string memory name) public {\n        if (!compareStrings(getType(msg.sender), string(\"admin\"))) {\n            //emit no permission except administrator\n            return;\n        }\n        if (!compareStrings(getType(addr), string(\"N/A\"))) {\n            //emit address already exist\n            return;\n        }\n        infoedAddr.push(addr);\n        PersonalInfo memory pI;\n        pI.name = name;\n        pI.PItype = string(\"doctor\");\n        addr2PI[addr] = pI;\n    }\n    \n\n    //patients create account\n    function createAccount(string memory name, uint age, string memory gender) public {\n        for (uint i = 0; i < infoedAddr.length; i++) {\n            if (infoedAddr[i] == msg.sender) {\n                //emit account already exists\n                return;\n            }\n        }\n        infoedAddr.push(msg.sender);\n        PersonalInfo memory pI;\n        pI.name = name;\n        pI.age = age;\n        pI.gender = gender;\n        pI.PItype = string(\"patient\");\n        addr2PI[msg.sender] = pI;\n    }\n\n\n    //patients register for appointment and give doctor the right to write the report\n    function register(address doctor) public {\n        if (compareStrings(getType(msg.sender), string(\"N/A\"))) {\n            //create account first then register for appointment\n            return;\n        }\n        if (!compareStrings(getType(doctor), string(\"doctor\"))) {\n            //not doctor\n            return;\n        }\n        address addr = msg.sender;\n        bool existed = true;\n        for (uint i = 0; i < regAddr.length; i++){\n            if (regAddr[i] == addr) {\n              //not sure whether to use storage or memory;\n                break;\n            }\n            if (i == regAddr.length - 1) {\n                existed = false;\n                regAddr.push(addr);\n                break;\n            }\n        }\n        bytes32 reportHash = sha256(abi.encode(addr, addr2pointer[addr].length + 1));\n        if (existed) {\n            addr2pointer[addr].push(reportHash);\n        } else {\n            addr2pointer[addr] = [reportHash];\n        }\n        Report memory report;\n        pointer2Report[reportHash] = report;\n        pointer2Report[reportHash].doctor = doctor;\n        \n        pointer2Report[reportHash].openTo = new address[](0);\n        pointer2Report[reportHash].openTo.push(doctor);\n    }\n\n\n    //patients release report\n    function releaseRep(uint reportIdx) public {\n        if (reportIdx > addr2pointer[msg.sender].length) return;\n        //emit\n        bytes32 reportHash = addr2pointer[msg.sender][reportIdx-1];\n        pointer2Report[reportHash].released = true;\n    }\n\n\n    //patients authorize certain people to view\n    function showRepTo(uint reportIdx, address addr) public { //counts from 1\n        if (compareStrings(getType(addr), string(\"N/A\"))) {\n            //emit create account first\n            return;\n        }\n        if (reportIdx > addr2pointer[msg.sender].length) return;\n        //emit index out of bounds\n        bytes32 reportHash = addr2pointer[msg.sender][reportIdx-1];\n        for (uint i = 0; i < pointer2Report[reportHash].openTo.length; i++){\n            if (addr == pointer2Report[reportHash].openTo[i]) return;\n        }\n        pointer2Report[reportHash].openTo.push(addr);\n    }\n\n\n    //from doctor\n    function fillRep(address patAddr, uint repIdx, string memory date,\n            string memory symptoms, string memory diagnosis, string memory prescription) public {\n        //bool fill = false;\n        if (compareStrings(getType(msg.sender), string(\"N/A\"))) {\n            //emit create account first\n            return;\n        } else if (compareStrings(getType(msg.sender), string(\"patient\"))) {\n            //emit only for doctor\n            return;\n        }\n        for (uint i = 0; i < regAddr.length; i++) {\n            if (regAddr[i] == patAddr) {\n                break;\n            }\n            if (i == regAddr.length - 1){\n                //emit patAddr not registered for any appointment\n                return;\n            }\n        }\n        if (repIdx > addr2pointer[patAddr].length) {\n            //emit report index out of bounds\n            return;\n        }\n        bytes32 repPointer = addr2pointer[patAddr][repIdx-1];\n        /*\n        if (!compareStrings(string(\"\"), pointer2Report[repPointer].date) ||\n            !compareStrings(string(\"\"), pointer2Report[repPointer].symptoms) ||\n            !compareStrings(string(\"\"), pointer2Report[repPointer].diagnosis) ||\n            !compareStrings(string(\"\"), pointer2Report[repPointer].prescription)) {\n            return;\n        }\n        */\n        if (pointer2Report[repPointer].doctor == msg.sender) {\n            pointer2Report[repPointer].date = date;\n            pointer2Report[repPointer].symptoms = symptoms;\n            pointer2Report[repPointer].diagnosis = diagnosis;\n            pointer2Report[repPointer].prescription = prescription;\n            return;\n        }\n        //emit not supposed to be filled out by this doctor\n    }\n\n\n    function getRepCount() public view returns(int) {\n        if (compareStrings(getType(msg.sender), string(\"N/A\"))) {\n            //emit create account first\n            return -1;\n        } else if (compareStrings(getType(msg.sender), string(\"doctor\"))) {\n            //emit only for doctor\n            return -1;\n        }\n        for (uint i = 0; i < regAddr.length; i++) {\n            if (regAddr[i] == msg.sender) {\n                break;\n            }\n            if (i == regAddr.length - 1) {\n                return 0;\n            }\n        }\n        bytes32[] memory pointerArray = addr2pointer[msg.sender];\n        return int(pointerArray.length);\n    }\n\n    //only for patient\n    //idx from 1 to n\n    function getRep(uint idx) public view returns(string memory, string memory, string memory, string memory, bool, address[] memory) {\n        address[] memory nullarray = new address[](0);\n        if (compareStrings(getType(msg.sender), string(\"N/A\"))) {\n            //emit create account first\n            return (\"\",\"\",\"\",\"\",true,nullarray);\n        } else if (compareStrings(getType(msg.sender), string(\"doctor\"))) {\n            //emit only for doctor\n            return (\"\",\"\",\"\",\"\",true,nullarray);\n        } else if (idx > addr2pointer[msg.sender].length) {\n            return (\"\",\"\",\"\",\"\", true, nullarray);\n        } else {\n            bytes32 repPointer = addr2pointer[msg.sender][idx-1];\n            string memory date = pointer2Report[repPointer].date;\n            string memory symptoms = pointer2Report[repPointer].symptoms;\n            string memory diagnosis = pointer2Report[repPointer].diagnosis;\n            string memory prescription = pointer2Report[repPointer].prescription;\n            bool released = pointer2Report[repPointer].released;\n            address[] memory openTo = pointer2Report[repPointer].openTo;\n            return (date, symptoms, diagnosis, prescription, released, openTo);\n        }\n    }\n\n\n    //only for doctor\n    function viewRep(address patAddr, uint repIdx) public view returns(string memory,\n     string memory, string memory, string memory) {\n        if (compareStrings(getType(msg.sender), string(\"N/A\"))) {\n            //emit create account first\n            return (\"\",\"\",\"\",\"\");\n        } \n        for (uint i = 0; i < regAddr.length; i++) {\n            if (regAddr[i] == patAddr) {\n                break;\n            }\n            if (i == regAddr.length - 1) {\n                //emit patAddr not registered for any appointment\n                return (\"\",\"\",\"\",\"\");\n            }\n        }\n        if (repIdx > addr2pointer[patAddr].length) {\n            //emit report index out of bounds\n            return (\"\",\"\",\"\",\"\");\n        }\n        bytes32 repPointer = addr2pointer[patAddr][repIdx-1];\n        if (pointer2Report[repPointer].released) {\n            Report memory rep = pointer2Report[repPointer];\n            return (rep.date, rep.symptoms, rep.diagnosis, rep.prescription);\n        }\n        address[] memory openList = pointer2Report[repPointer].openTo;\n        for (uint i = 0; i < openList.length; i++) {\n            if (openList[i] == msg.sender) {\n                Report memory rep = pointer2Report[repPointer];\n                return (rep.date, rep.symptoms, rep.diagnosis, rep.prescription);\n            }\n        }\n        return (\"\",\"\",\"\",\"\");\n    }\n\n\n    function getThisType() public view returns(string memory) {\n        for (uint i = 0; i < infoedAddr.length; i++) {\n            if (infoedAddr[i] == msg.sender) break;\n            if (i == infoedAddr.length - 1) {\n                //emit addr not exist\n                return string(\"N/A\");\n            }\n        }\n        return addr2PI[msg.sender].PItype;\n    }\n\n    //check user type\n    function getType(address addr) public view returns(string memory) {\n        for (uint i = 0; i < infoedAddr.length; i++) {\n            if (infoedAddr[i] == addr) break;\n            if (i == infoedAddr.length - 1) {\n                //emit addr not exist\n                return string(\"N/A\");\n            }\n        }\n        return addr2PI[addr].PItype;\n    }\n\n\n    //string check\n    function compareStrings(string memory a, string memory b) public pure returns(bool) {\n        return (keccak256(abi.encodePacked((a))) == keccak256(abi.encodePacked((b))));\n    }\n    \n    function getAddress() public view returns(address) {\n        return msg.sender;\n    }\n\n    /*\n    function toBytes(AddrWithIdx memory a) public pure returns (bytes memory) {\n        return abi.encode(a.addr, a.index);\n    }\n    */\n}",
  "sourcePath": "/Users/haikangdeng/Desktop//2020.7/ContractExamples/Hospital/contracts/Hospital.sol",
  "compiler": {
    "name": "solc",
    "version": "0.5.16+commit.9c3226ce.Emscripten.clang"
  },
  "schemaVersion": "3.2.2",
  "updatedAt": "2020-10-17T16:24:12.867Z",
  "networkType": "ethereum",
  "devdoc": {
    "methods": {}
  },
  "userdoc": {
    "methods": {}
  }
}